S00C0000746573322E737265639A
S11300000C942A000C9447000C9447000C9447006D
S11300100C9447000C9447000C9447000C94470040
S11300200C9447000C9447000C9447000C94470030
S11300300C9447000C944E030C9447000C94160344
S11300400C9447000C9447000C9447000C94470010
S11300500C94470011241FBECFE5D8E0DEBFCDBF0E
S113006010E0A0E6B0E0E0E7F9E002C005900D92F0
S1130070A43AB107D9F726E0A4EAB0E001C01D9282
S1130080A33CB207E1F70E948E000C94B6040C94D2
S1130090000040E020E007C0FC01EC55FF4F8081E8
S11300A0381341E02F5F822F90E0FC01E05AFF4FAC
S11300B030813111F1CF411103C082E00E948B00E5
S11300C0089580E00E948B000895789480E00E9457
S11300D0870082E00E94870080E00E94E703089581
S11300E040E06DE086E790E00E94EE0381E690E058
S11300F00E94DD0384EA90E00E94670489E490E0B2
S11301000E94E2030E941C040E948504FBCF60E06D
S11301100E94950008950E94AD0108950E94650013
S11301200E94700080E090E00895613009F460C09E
S113013020F0623009F4B7C00895883098F44AB3C7
S1130140877021E030E0B90102C0660F771F8A95FD
S1130150E2F7CB01942F982B9ABB9BB3809589230C
S11301608BBB089598EF980F983098F447B3877035
S113017021E030E0B90102C0660F771F8A95E2F7EB
S1130180CB01942F982B97BB98B38095892388BB78
S1130190089590EF980F983098F444B3877021E055
S11301A030E0B90102C0660F771F8A95E2F7CB01F0
S11301B0942F982B94BB95B38095892385BB089580
S11301C098EE980F983008F0C7C041B3877021E0CB
S11301D030E0B90102C0660F771F8A95E2F7CB01C0
S11301E0942F982B91BB92B38095892382BB089559
S11301F0883098F44AB3877021E030E0B90102C036
S1130200660F771F8A95E2F7CB018095942F982388
S11302109ABB9BB389238BBB089598EF980F9830B2
S113022098F447B3877021E030E0B90102C0660F4B
S1130230771F8A95E2F7CB018095942F982397BB7B
S113024098B3892388BB089590EF980F983098F459
S113025044B3877021E030E0B90102C0660F771F14
S11302608A95E2F7CB018095942F982394BB95B39C
S1130270892385BB089598EE980F983008F06CC0D8
S113028041B3877021E030E0B90102C0660F771FE7
S11302908A95E2F7CB018095942F982391BB92B372
S11302A0892382BB0895883098F44AB3877021E08B
S11302B030E0B90102C0660F771F8A95E2F7CB01DF
S11302C0962F909594239ABB9BB3892B8BBB08954F
S11302D098EF980F983098F447B3877021E030E096
S11302E0B90102C0660F771F8A95E2F7CB01962FFA
S11302F09095942397BB98B3892B88BB089590EF6E
S1130300980F983098F444B3877021E030E0B90135
S113031002C0660F771F8A95E2F7CB01962F90955E
S1130320942394BB95B3892B85BB089598EE980FBD
S1130330983090F441B3877021E030E0B90102C0F5
S1130340660F771F8A95E2F7CB01962F9095942339
S113035091BB92B3892B82BB0895883068F44BB368
S113036021E030E0B90102C0660F771F8A95E2F7F9
S1130370CB0184278BBB089598EF980F983070F4C5
S113038048B3877021E030E0B90102C0660F771FDF
S11303908A95E2F7CB01842788BB089590EF980FE4
S11303A0983070F445B3877021E030E0B90102C0A1
S11303B0660F771F8A95E2F7CB01842785BB0895E2
S11303C098EE980F983068F442B3877021E030E0DB
S11303D0B90102C0660F771F8A95E2F7CB01842723
S11303E082BB089520E001C1822F90E0FC01EE0F52
S11303F0FF1FE80FF91FEE0FFF1FE956FF4F318172
S1130400323008F0F1C0FC01EE0FFF1FE80FF91FB6
S1130410EE0FFF1FE956FF4FE081F0E0EE0FFF1FE4
S1130420E30FF11DEE0FFF1FE957FF4F408151818C
S11304304F3F5105F1F0E8F030B53F7730BDDC01B6
S1130440AA0FBB1FA80FB91FAA0FBB1FA956BF4FE6
S1130450EC9111963C91F0E0EE0FFF1FE30FF11DBC
S1130460EE0FFF1FE957FF4F318130BD308139B99D
S113047001C049B9FC01EE0FFF1FE80FF91FEE0F91
S1130480FF1FE956FF4F3181311104C03BB13D7F5D
S11304903BB903C03BB132603BB9FC01EE0FFF1F17
S11304A0E80FF91FEE0FFF1FE956FF4F328131119C
S11304B00AC030B5306830BD30B53F7E30BD30B590
S11304C0306230BD15C0313051F430B5306830BDC4
S11304D030B5306130BD30B5306230BD09C030B5A3
S11304E0306830BD30B53F7E30BD30B53F7D30BD66
S11304F0FC01EE0FFF1FE80FF91FEE0FFF1FE95677
S1130500FF4F3381311107C030B5306830BD30B58D
S1130510377F30BD06C030B5306830BD30B5386087
S113052030BDFC01EE0FFF1FE80FF91FEE0FFF1F98
S1130530E956FF4F3481313099F028F03230E9F038
S1130540333041F133C030B5306830BD30B53D7F14
S113055030BD30B53B7F30BD3AB13B7F3AB926C0A0
S113056030B5306830BD30B5326030BD30B53B7F1A
S113057030BD3AB13B7F3AB919C030B5306830BDAF
S113058030B53D7F30BD30B5346030BD3AB13B7FCE
S11305903AB90CC030B5306830BD30B5326030BDCA
S11305A030B5346030BD3AB13B7F3AB9FC01EE0F4F
S11305B0FF1FE80FF91FEE0FFF1FE956FF4F85815C
S11305C0813041F018F0823049F00EC08AB1886061
S11305D08AB90AC08AB180618AB906C08AB18860C2
S11305E08AB98AB180618AB92F5F223008F4FCCEBF
S11305F0222311F080E0089581E008959BB195FBDA
S1130600992790F99BB99923C9F38CB908958CB9AA
S113061008958AB180648AB908958AB18F7B8AB9B2
S113062008959093C5008093C40008951F920F927B
S11306300FB60F9211242F933F934F935F936F93B1
S11306407F938F939F93AF93BF93EF93FF93E09127
S1130650C400F091C500309709F00995FF91EF911E
S1130660BF91AF919F918F917F916F915F914F91C6
S11306703F912F910F900FBE0F901F9018958CB142
S113068008958AB180688AB908958AB18F778AB942
S113069008959093C3008093C20008951F920F920F
S11306A00FB60F9211242F933F934F935F936F9341
S11306B07F938F939F93AF93BF93EF93FF93E091B7
S11306C0C200F091C300309709F00995FF91EF91B2
S11306D0BF91AF919F918F917F916F915F914F9156
S11306E03F912F910F900FBE0F901F901895CF93AD
S11306F0E091C10680918400C2E3CE9FF0011124F1
S1130700EC51FF4FE80FF11D80810E940703809197
S113071084008F5F80938400E091C106CE9FF00136
S11307201124EC51FF4FE80FF11D8081811105C0A8
S113073081E0809384008093C206CF910895CF9383
S1130740DF93E091E200F0E0EE0FFF1FE353FF4F71
S1130750C081D1818091C600C80FD11D0E943F0382
S11307608883E091E200F0E0EE0FFF1FE353FF4FB8
S11307700190F081E02D8091C600282F30E0E20F37
S1130780F31F90819D3099F4E091E200F0E0EE0FC8
S1130790FF1FE353FF4F80819181FC01E20FF31FA0
S11307A010821092C60081E08093E30003C08F5F43
S11307B08093C600DF91CF9108959093CC008093ED
S11307C0CB0008959093CA008093C90008958111C5
S11307D003C00E94F201089580E00895CF93DF934F
S11307E0EC0180918600813031F41092C80080932E
S11307F0C0061092860090E011C0E091C800DE01AE
S1130800A40FB11D2C9182E3E89FF0011124EC5157
S1130810FF4FE90FF11D20834F5F9F5F961768F329
S11308208091C8008F5F8093C8008E3111F41092BC
S1130830C800DF91CF9108958091C006813099F46A
S1130840E091C10682E3E89FF0011124EC51FF4FCF
S113085080810E94FE0287E793E00E9411030E94B8
S113086009031092C0068091C206813079F5109276
S1130870C2068091C1068F5F8093C106E091CB00D0
S1130880F091CC00309709F009958DE00E94FE02AA
S1130890E091C10682E3E89FF0011124EC51FF4F7F
S11308A08081811108C00E940D0381E0809386003D
S11308B01092C1060895E091C10682E3E89FF00119
S11308C01124EC51FF4F80810E94FE0208959C0187
S11308D080918500813031F41092C7008093E1004B
S11308E0109285009091C700E92FF0E0EE0FFF1FF2
S11308F0E353FF4F3183208381E0890F8093C70046
S11309008A3011F41092C70008958091E10081307B
S113091041F48FE993E00E9449030E94410310923D
S1130920E1008091E300813001F51092E3008091B1
S1130930E2008F5F8093E200E091E200F0E0EE0FCE
S1130940FF1FE353FF4F80819181892B39F40E946B
S113095045031092E20081E080938500E091C90094
S1130960F091CA00309709F009950895F894FFCFE3
S1130970436F6E6669726D2042434D204F706572FD
S11309806174696E670042434D204F7065726174F3
S1130990696E6700010101CF00A0016700CF003339
S11309A00067002200440002000200030204020364
S10709B00204030036
S9030000FC
